{
  "_format": "hh-sol-artifact-1",
  "contractName": "ForumNFT",
  "sourceName": "contracts/ForumNFT.sol",
  "abi": [
    {
      "inputs": [
        {
          "internalType": "string",
          "name": "_name",
          "type": "string"
        },
        {
          "internalType": "string",
          "name": "_symbol",
          "type": "string"
        },
        {
          "internalType": "address",
          "name": "_newOwner",
          "type": "address"
        },
        {
          "internalType": "bool",
          "name": "_isNFT",
          "type": "bool"
        }
      ],
      "stateMutability": "nonpayable",
      "type": "constructor"
    },
    {
      "inputs": [],
      "name": "LSP4TokenNameNotEditable",
      "type": "error"
    },
    {
      "inputs": [],
      "name": "LSP4TokenSymbolNotEditable",
      "type": "error"
    },
    {
      "inputs": [
        {
          "internalType": "address",
          "name": "tokenOwner",
          "type": "address"
        },
        {
          "internalType": "uint256",
          "name": "authorizedAmount",
          "type": "uint256"
        },
        {
          "internalType": "address",
          "name": "operator",
          "type": "address"
        },
        {
          "internalType": "uint256",
          "name": "amount",
          "type": "uint256"
        }
      ],
      "name": "LSP7AmountExceedsAuthorizedAmount",
      "type": "error"
    },
    {
      "inputs": [
        {
          "internalType": "uint256",
          "name": "balance",
          "type": "uint256"
        },
        {
          "internalType": "address",
          "name": "tokenOwner",
          "type": "address"
        },
        {
          "internalType": "uint256",
          "name": "amount",
          "type": "uint256"
        }
      ],
      "name": "LSP7AmountExceedsBalance",
      "type": "error"
    },
    {
      "inputs": [],
      "name": "LSP7CannotSendWithAddressZero",
      "type": "error"
    },
    {
      "inputs": [],
      "name": "LSP7CannotUseAddressZeroAsOperator",
      "type": "error"
    },
    {
      "inputs": [],
      "name": "LSP7InvalidTransferBatch",
      "type": "error"
    },
    {
      "inputs": [
        {
          "internalType": "address",
          "name": "tokenReceiver",
          "type": "address"
        }
      ],
      "name": "LSP7NotifyTokenReceiverContractMissingLSP1Interface",
      "type": "error"
    },
    {
      "inputs": [
        {
          "internalType": "address",
          "name": "tokenReceiver",
          "type": "address"
        }
      ],
      "name": "LSP7NotifyTokenReceiverIsEOA",
      "type": "error"
    },
    {
      "anonymous": false,
      "inputs": [
        {
          "indexed": true,
          "internalType": "address",
          "name": "operator",
          "type": "address"
        },
        {
          "indexed": true,
          "internalType": "address",
          "name": "tokenOwner",
          "type": "address"
        },
        {
          "indexed": true,
          "internalType": "uint256",
          "name": "amount",
          "type": "uint256"
        }
      ],
      "name": "AuthorizedOperator",
      "type": "event"
    },
    {
      "anonymous": false,
      "inputs": [
        {
          "indexed": true,
          "internalType": "bytes32",
          "name": "dataKey",
          "type": "bytes32"
        }
      ],
      "name": "DataChanged",
      "type": "event"
    },
    {
      "anonymous": false,
      "inputs": [
        {
          "indexed": true,
          "internalType": "address",
          "name": "previousOwner",
          "type": "address"
        },
        {
          "indexed": true,
          "internalType": "address",
          "name": "newOwner",
          "type": "address"
        }
      ],
      "name": "OwnershipTransferred",
      "type": "event"
    },
    {
      "anonymous": false,
      "inputs": [
        {
          "indexed": true,
          "internalType": "address",
          "name": "operator",
          "type": "address"
        },
        {
          "indexed": true,
          "internalType": "address",
          "name": "tokenOwner",
          "type": "address"
        }
      ],
      "name": "RevokedOperator",
      "type": "event"
    },
    {
      "anonymous": false,
      "inputs": [
        {
          "indexed": true,
          "internalType": "address",
          "name": "operator",
          "type": "address"
        },
        {
          "indexed": true,
          "internalType": "address",
          "name": "from",
          "type": "address"
        },
        {
          "indexed": true,
          "internalType": "address",
          "name": "to",
          "type": "address"
        },
        {
          "indexed": false,
          "internalType": "uint256",
          "name": "amount",
          "type": "uint256"
        },
        {
          "indexed": false,
          "internalType": "bool",
          "name": "force",
          "type": "bool"
        },
        {
          "indexed": false,
          "internalType": "bytes",
          "name": "data",
          "type": "bytes"
        }
      ],
      "name": "Transfer",
      "type": "event"
    },
    {
      "inputs": [
        {
          "internalType": "address",
          "name": "operator",
          "type": "address"
        },
        {
          "internalType": "uint256",
          "name": "amount",
          "type": "uint256"
        }
      ],
      "name": "authorizeOperator",
      "outputs": [],
      "stateMutability": "nonpayable",
      "type": "function"
    },
    {
      "inputs": [
        {
          "internalType": "address",
          "name": "tokenOwner",
          "type": "address"
        }
      ],
      "name": "balanceOf",
      "outputs": [
        {
          "internalType": "uint256",
          "name": "",
          "type": "uint256"
        }
      ],
      "stateMutability": "view",
      "type": "function"
    },
    {
      "inputs": [
        {
          "internalType": "address",
          "name": "_newAdmin",
          "type": "address"
        }
      ],
      "name": "changeAdmin",
      "outputs": [],
      "stateMutability": "nonpayable",
      "type": "function"
    },
    {
      "inputs": [
        {
          "internalType": "uint256",
          "name": "_tokenId",
          "type": "uint256"
        },
        {
          "internalType": "string",
          "name": "_cid",
          "type": "string"
        }
      ],
      "name": "createComment",
      "outputs": [],
      "stateMutability": "nonpayable",
      "type": "function"
    },
    {
      "inputs": [
        {
          "internalType": "string",
          "name": "_cid",
          "type": "string"
        }
      ],
      "name": "createPost",
      "outputs": [],
      "stateMutability": "nonpayable",
      "type": "function"
    },
    {
      "inputs": [],
      "name": "decimals",
      "outputs": [
        {
          "internalType": "uint256",
          "name": "",
          "type": "uint256"
        }
      ],
      "stateMutability": "view",
      "type": "function"
    },
    {
      "inputs": [
        {
          "internalType": "uint256",
          "name": "_tokenId",
          "type": "uint256"
        }
      ],
      "name": "deletePost",
      "outputs": [],
      "stateMutability": "nonpayable",
      "type": "function"
    },
    {
      "inputs": [
        {
          "internalType": "uint256",
          "name": "_tokenId",
          "type": "uint256"
        },
        {
          "internalType": "string",
          "name": "_cid",
          "type": "string"
        }
      ],
      "name": "editPost",
      "outputs": [],
      "stateMutability": "nonpayable",
      "type": "function"
    },
    {
      "inputs": [
        {
          "internalType": "uint256",
          "name": "_tokenId",
          "type": "uint256"
        }
      ],
      "name": "fetchComments",
      "outputs": [
        {
          "components": [
            {
              "internalType": "string",
              "name": "cid",
              "type": "string"
            },
            {
              "internalType": "address",
              "name": "commentor",
              "type": "address"
            },
            {
              "internalType": "uint256",
              "name": "id",
              "type": "uint256"
            }
          ],
          "internalType": "struct ForumNFT.Comment[]",
          "name": "comments",
          "type": "tuple[]"
        }
      ],
      "stateMutability": "view",
      "type": "function"
    },
    {
      "inputs": [
        {
          "internalType": "uint256",
          "name": "_tokenId",
          "type": "uint256"
        }
      ],
      "name": "fetchLikes",
      "outputs": [
        {
          "internalType": "address[]",
          "name": "likes",
          "type": "address[]"
        }
      ],
      "stateMutability": "view",
      "type": "function"
    },
    {
      "inputs": [],
      "name": "fetchPosts",
      "outputs": [
        {
          "components": [
            {
              "internalType": "string",
              "name": "cid",
              "type": "string"
            },
            {
              "internalType": "address",
              "name": "author",
              "type": "address"
            },
            {
              "internalType": "address[]",
              "name": "likes",
              "type": "address[]"
            },
            {
              "components": [
                {
                  "internalType": "string",
                  "name": "cid",
                  "type": "string"
                },
                {
                  "internalType": "address",
                  "name": "commentor",
                  "type": "address"
                },
                {
                  "internalType": "uint256",
                  "name": "id",
                  "type": "uint256"
                }
              ],
              "internalType": "struct ForumNFT.Comment[]",
              "name": "comments",
              "type": "tuple[]"
            },
            {
              "internalType": "uint256",
              "name": "id",
              "type": "uint256"
            }
          ],
          "internalType": "struct ForumNFT.Post[]",
          "name": "posts",
          "type": "tuple[]"
        },
        {
          "internalType": "uint256",
          "name": "",
          "type": "uint256"
        },
        {
          "internalType": "uint256",
          "name": "",
          "type": "uint256"
        },
        {
          "internalType": "address",
          "name": "",
          "type": "address"
        }
      ],
      "stateMutability": "view",
      "type": "function"
    },
    {
      "inputs": [
        {
          "internalType": "bytes32[]",
          "name": "dataKeys",
          "type": "bytes32[]"
        }
      ],
      "name": "getData",
      "outputs": [
        {
          "internalType": "bytes[]",
          "name": "dataValues",
          "type": "bytes[]"
        }
      ],
      "stateMutability": "view",
      "type": "function"
    },
    {
      "inputs": [
        {
          "internalType": "bytes32",
          "name": "dataKey",
          "type": "bytes32"
        }
      ],
      "name": "getData",
      "outputs": [
        {
          "internalType": "bytes",
          "name": "dataValue",
          "type": "bytes"
        }
      ],
      "stateMutability": "view",
      "type": "function"
    },
    {
      "inputs": [
        {
          "internalType": "address",
          "name": "operator",
          "type": "address"
        },
        {
          "internalType": "address",
          "name": "tokenOwner",
          "type": "address"
        }
      ],
      "name": "isOperatorFor",
      "outputs": [
        {
          "internalType": "uint256",
          "name": "",
          "type": "uint256"
        }
      ],
      "stateMutability": "view",
      "type": "function"
    },
    {
      "inputs": [
        {
          "internalType": "uint256",
          "name": "_tokenId",
          "type": "uint256"
        }
      ],
      "name": "like",
      "outputs": [],
      "stateMutability": "nonpayable",
      "type": "function"
    },
    {
      "inputs": [],
      "name": "owner",
      "outputs": [
        {
          "internalType": "address",
          "name": "",
          "type": "address"
        }
      ],
      "stateMutability": "view",
      "type": "function"
    },
    {
      "inputs": [
        {
          "internalType": "uint256",
          "name": "",
          "type": "uint256"
        }
      ],
      "name": "postByTokenId",
      "outputs": [
        {
          "internalType": "string",
          "name": "cid",
          "type": "string"
        },
        {
          "internalType": "address",
          "name": "author",
          "type": "address"
        },
        {
          "internalType": "uint256",
          "name": "id",
          "type": "uint256"
        }
      ],
      "stateMutability": "view",
      "type": "function"
    },
    {
      "inputs": [
        {
          "internalType": "uint256",
          "name": "",
          "type": "uint256"
        }
      ],
      "name": "postsIds",
      "outputs": [
        {
          "internalType": "uint256",
          "name": "",
          "type": "uint256"
        }
      ],
      "stateMutability": "view",
      "type": "function"
    },
    {
      "inputs": [
        {
          "internalType": "uint256",
          "name": "_tokenId",
          "type": "uint256"
        },
        {
          "internalType": "uint256",
          "name": "_commentId",
          "type": "uint256"
        }
      ],
      "name": "removeComment",
      "outputs": [],
      "stateMutability": "nonpayable",
      "type": "function"
    },
    {
      "inputs": [],
      "name": "renounceOwnership",
      "outputs": [],
      "stateMutability": "nonpayable",
      "type": "function"
    },
    {
      "inputs": [
        {
          "internalType": "address",
          "name": "operator",
          "type": "address"
        }
      ],
      "name": "revokeOperator",
      "outputs": [],
      "stateMutability": "nonpayable",
      "type": "function"
    },
    {
      "inputs": [
        {
          "internalType": "bytes32[]",
          "name": "dataKeys",
          "type": "bytes32[]"
        },
        {
          "internalType": "bytes[]",
          "name": "dataValues",
          "type": "bytes[]"
        }
      ],
      "name": "setData",
      "outputs": [],
      "stateMutability": "nonpayable",
      "type": "function"
    },
    {
      "inputs": [
        {
          "internalType": "bytes32",
          "name": "dataKey",
          "type": "bytes32"
        },
        {
          "internalType": "bytes",
          "name": "dataValue",
          "type": "bytes"
        }
      ],
      "name": "setData",
      "outputs": [],
      "stateMutability": "nonpayable",
      "type": "function"
    },
    {
      "inputs": [
        {
          "internalType": "bytes4",
          "name": "interfaceId",
          "type": "bytes4"
        }
      ],
      "name": "supportsInterface",
      "outputs": [
        {
          "internalType": "bool",
          "name": "",
          "type": "bool"
        }
      ],
      "stateMutability": "view",
      "type": "function"
    },
    {
      "inputs": [],
      "name": "totalSupply",
      "outputs": [
        {
          "internalType": "uint256",
          "name": "",
          "type": "uint256"
        }
      ],
      "stateMutability": "view",
      "type": "function"
    },
    {
      "inputs": [
        {
          "internalType": "address",
          "name": "from",
          "type": "address"
        },
        {
          "internalType": "address",
          "name": "to",
          "type": "address"
        },
        {
          "internalType": "uint256",
          "name": "amount",
          "type": "uint256"
        },
        {
          "internalType": "bool",
          "name": "force",
          "type": "bool"
        },
        {
          "internalType": "bytes",
          "name": "data",
          "type": "bytes"
        }
      ],
      "name": "transfer",
      "outputs": [],
      "stateMutability": "nonpayable",
      "type": "function"
    },
    {
      "inputs": [
        {
          "internalType": "address[]",
          "name": "from",
          "type": "address[]"
        },
        {
          "internalType": "address[]",
          "name": "to",
          "type": "address[]"
        },
        {
          "internalType": "uint256[]",
          "name": "amount",
          "type": "uint256[]"
        },
        {
          "internalType": "bool",
          "name": "force",
          "type": "bool"
        },
        {
          "internalType": "bytes[]",
          "name": "data",
          "type": "bytes[]"
        }
      ],
      "name": "transferBatch",
      "outputs": [],
      "stateMutability": "nonpayable",
      "type": "function"
    },
    {
      "inputs": [
        {
          "internalType": "address",
          "name": "newOwner",
          "type": "address"
        }
      ],
      "name": "transferOwnership",
      "outputs": [],
      "stateMutability": "nonpayable",
      "type": "function"
    }
  ],
  "bytecode": "0x60806040523480156200001157600080fd5b5060405162005f2538038062005f25833981810160405281019062000037919062000569565b83838383838383806200005581620001a560201b620021d71760201c565b50620000c57feafec4d89fa9619884b60000a4d96624a38f7ac2d8d9a604ecf07c12c77e480c60001b6040518060400160405280600481526020017fa4d9662400000000000000000000000000000000000000000000000000000000815250620002ad60201b620022d61760201c565b620000ff7fdeba1e292f8ba88238e10ab3c7f88bd4be4fac56cad5194b6ecceaf653468af160001b84620002ad60201b620022d61760201c565b620001397f2f0a68ab07768e01943a599e73362a0e17a63a72e94dd2e384d2c1d4db93275660001b83620002ad60201b620022d61760201c565b50505080600260006101000a81548160ff0219169083151502179055505050505033601260006101000a81548173ffffffffffffffffffffffffffffffffffffffff021916908373ffffffffffffffffffffffffffffffffffffffff160217905550505050506200094b565b620001b56200030160201b60201c565b73ffffffffffffffffffffffffffffffffffffffff168173ffffffffffffffffffffffffffffffffffffffff1614620002aa5760008060009054906101000a900473ffffffffffffffffffffffffffffffffffffffff169050816000806101000a81548173ffffffffffffffffffffffffffffffffffffffff021916908373ffffffffffffffffffffffffffffffffffffffff1602179055508173ffffffffffffffffffffffffffffffffffffffff168173ffffffffffffffffffffffffffffffffffffffff167f8be0079c531659141344cd1fd0a4f28419497f9722a3daafe3b4186f6b6457e060405160405180910390a3505b50565b80600160008481526020019081526020016000209081620002cf919062000864565b50817fcdf4e344c0d23d4cdd0474039d176c55b19d531070dbe17856bfb993a5b5720b60405160405180910390a25050565b60008060009054906101000a900473ffffffffffffffffffffffffffffffffffffffff16905090565b6000604051905090565b600080fd5b600080fd5b600080fd5b600080fd5b6000601f19601f8301169050919050565b7f4e487b7100000000000000000000000000000000000000000000000000000000600052604160045260246000fd5b620003938262000348565b810181811067ffffffffffffffff82111715620003b557620003b462000359565b5b80604052505050565b6000620003ca6200032a565b9050620003d8828262000388565b919050565b600067ffffffffffffffff821115620003fb57620003fa62000359565b5b620004068262000348565b9050602081019050919050565b60005b838110156200043357808201518184015260208101905062000416565b8381111562000443576000848401525b50505050565b6000620004606200045a84620003dd565b620003be565b9050828152602081018484840111156200047f576200047e62000343565b5b6200048c84828562000413565b509392505050565b600082601f830112620004ac57620004ab6200033e565b5b8151620004be84826020860162000449565b91505092915050565b600073ffffffffffffffffffffffffffffffffffffffff82169050919050565b6000620004f482620004c7565b9050919050565b6200050681620004e7565b81146200051257600080fd5b50565b6000815190506200052681620004fb565b92915050565b60008115159050919050565b62000543816200052c565b81146200054f57600080fd5b50565b600081519050620005638162000538565b92915050565b6000806000806080858703121562000586576200058562000334565b5b600085015167ffffffffffffffff811115620005a757620005a662000339565b5b620005b58782880162000494565b945050602085015167ffffffffffffffff811115620005d957620005d862000339565b5b620005e78782880162000494565b9350506040620005fa8782880162000515565b92505060606200060d8782880162000552565b91505092959194509250565b600081519050919050565b7f4e487b7100000000000000000000000000000000000000000000000000000000600052602260045260246000fd5b600060028204905060018216806200066c57607f821691505b60208210810362000682576200068162000624565b5b50919050565b60008190508160005260206000209050919050565b60006020601f8301049050919050565b600082821b905092915050565b600060088302620006ec7fffffffffffffffffffffffffffffffffffffffffffffffffffffffffffffffff82620006ad565b620006f88683620006ad565b95508019841693508086168417925050509392505050565b6000819050919050565b6000819050919050565b6000620007456200073f620007398462000710565b6200071a565b62000710565b9050919050565b6000819050919050565b620007618362000724565b6200077962000770826200074c565b848454620006ba565b825550505050565b600090565b6200079062000781565b6200079d81848462000756565b505050565b5b81811015620007c557620007b960008262000786565b600181019050620007a3565b5050565b601f8211156200081457620007de8162000688565b620007e9846200069d565b81016020851015620007f9578190505b6200081162000808856200069d565b830182620007a2565b50505b505050565b600082821c905092915050565b6000620008396000198460080262000819565b1980831691505092915050565b600062000854838362000826565b9150826002028217905092915050565b6200086f8262000619565b67ffffffffffffffff8111156200088b576200088a62000359565b5b62000897825462000653565b620008a4828285620007c9565b600060209050601f831160018114620008dc5760008415620008c7578287015190505b620008d3858262000846565b86555062000943565b601f198416620008ec8662000688565b60005b828110156200091657848901518255600182019150602085019450602081019050620008ef565b8683101562000936578489015162000932601f89168262000826565b8355505b6001600288020188555050505b505050505050565b6155ca806200095b6000396000f3fe608060405234801561001057600080fd5b50600436106101c45760003560e01c8063760d9bba116100f9578063abe48cc911610097578063e82935da11610071578063e82935da14610518578063f2fde38b14610534578063fa99654a14610550578063fad8b32a1461056c576101c4565b8063abe48cc91461049c578063c7303c61146104cc578063d95b6371146104e8576101c4565b80638f283970116100d35780638f28397014610427578063a71eb6a114610443578063a8a34e0a1461045f578063abaddd7f1461047b576101c4565b8063760d9bba146103d15780637f23690c146103ed5780638da5cb5b14610409576101c4565b806340a17985116101665780635053380c116101405780635053380c1461033757806354f6127f1461036757806370a0823114610397578063715018a6146103c7576101c4565b806340a17985146102cf57806347980aa3146102eb5780634e3e6e9c14610307576101c4565b806316ebbe04116101a257806316ebbe041461023157806318160ddd146102635780631c77a3a714610281578063313ce567146102b1576101c4565b806301ffc9a7146101c9578063094cd5ee146101f957806314a6e29314610215575b600080fd5b6101e360048036038101906101de91906135c4565b610588565b6040516101f0919061360c565b60405180910390f35b610213600480360381019061020e919061365d565b6105e9565b005b61022f600480360381019061022a91906139af565b610836565b005b61024b6004803603810190610246919061365d565b6108e1565b60405161025a93929190613aff565b60405180910390f35b61026b6109b3565b6040516102789190613b3d565b60405180910390f35b61029b6004803603810190610296919061365d565b6109bd565b6040516102a89190613cd2565b60405180910390f35b6102b9610bec565b6040516102c69190613b3d565b60405180910390f35b6102e960048036038101906102e49190613d4f565b610c14565b005b61030560048036038101906103009190613ddb565b610d50565b005b610321600480360381019061031c9190613e1b565b610d66565b60405161032e9190613f7b565b60405180910390f35b610351600480360381019061034c919061365d565b610e1c565b60405161035e919061404c565b60405180910390f35b610381600480360381019061037c919061406e565b610ec0565b60405161038e91906140e5565b60405180910390f35b6103b160048036038101906103ac9190614107565b610ed2565b6040516103be9190613b3d565b60405180910390f35b6103cf610f1b565b005b6103eb60048036038101906103e69190614160565b610f2f565b005b610407600480360381019061040291906141f7565b611067565b005b61041161107d565b60405161041e9190614253565b60405180910390f35b610441600480360381019061043c9190614107565b6110a6565b005b61045d6004803603810190610458919061426e565b611144565b005b61047960048036038101906104749190614434565b611582565b005b610483611675565b604051610493949392919061475a565b60405180910390f35b6104b660048036038101906104b1919061365d565b611aa8565b6040516104c39190613b3d565b60405180910390f35b6104e660048036038101906104e191906147a6565b611acc565b005b61050260048036038101906104fd91906147f3565b611c74565b60405161050f9190613b3d565b60405180910390f35b610532600480360381019061052d919061365d565b611d76565b005b61054e60048036038101906105499190614107565b61206f565b005b61056a60048036038101906105659190613d4f565b6120f2565b005b61058660048036038101906105819190614107565b6121c1565b005b600063e33f65c360e01b7bffffffffffffffffffffffffffffffffffffffffffffffffffffffff1916827bffffffffffffffffffffffffffffffffffffffffffffffffffffffff191614806105e257506105e182612328565b5b9050919050565b3373ffffffffffffffffffffffffffffffffffffffff16600f600083815260200190815260200160002060010160009054906101000a900473ffffffffffffffffffffffffffffffffffffffff1673ffffffffffffffffffffffffffffffffffffffff1614806106a657503373ffffffffffffffffffffffffffffffffffffffff16601260009054906101000a900473ffffffffffffffffffffffffffffffffffffffff1673ffffffffffffffffffffffffffffffffffffffff16145b6106e5576040517f08c379a00000000000000000000000000000000000000000000000000000000081526004016106dc9061487f565b60405180910390fd5b6000600e80548060200260200160405190810160405280929190818152602001828054801561073357602002820191906000526020600020905b81548152602001906001019080831161071f575b50505050509050600081519050600080600090505b8281101561078457848482815181106107645761076361489f565b5b60200260200101510361077957809150610784565b806001019050610748565b5060008190505b60018361079891906148fd565b8110156107f057836001826107ad9190614931565b815181106107be576107bd61489f565b5b60200260200101518482815181106107d9576107d861489f565b5b60200260200101818152505080600101905061078b565b5082600e90805190602001906108079291906130f2565b50600e80548061081a57610819614987565b5b6001900381819060005260206000200160009055905550505050565b61083e612389565b8051825114610882576040517f08c379a000000000000000000000000000000000000000000000000000000000815260040161087990614a28565b60405180910390fd5b60005b82518110156108dc576108cc8382815181106108a4576108a361489f565b5b60200260200101518383815181106108bf576108be61489f565b5b6020026020010151612400565b6108d5816124c6565b9050610885565b505050565b600f60205280600052604060002060009150905080600001805461090490614a77565b80601f016020809104026020016040519081016040528092919081815260200182805461093090614a77565b801561097d5780601f106109525761010080835404028352916020019161097d565b820191906000526020600020905b81548152906001019060200180831161096057829003601f168201915b5050505050908060010160009054906101000a900473ffffffffffffffffffffffffffffffffffffffff16908060040154905083565b6000600354905090565b60606000600f60008481526020019081526020016000206003018054905090506000600f6000858152602001908152602001600020600301805480602002602001604051908101604052809291908181526020016000905b82821015610b395783829060005260206000209060030201604051806060016040529081600082018054610a4890614a77565b80601f0160208091040260200160405190810160405280929190818152602001828054610a7490614a77565b8015610ac15780601f10610a9657610100808354040283529160200191610ac1565b820191906000526020600020905b815481529060010190602001808311610aa457829003601f168201915b505050505081526020016001820160009054906101000a900473ffffffffffffffffffffffffffffffffffffffff1673ffffffffffffffffffffffffffffffffffffffff1673ffffffffffffffffffffffffffffffffffffffff16815260200160028201548152505081526020019060010190610a15565b5050505090508167ffffffffffffffff811115610b5957610b586136a0565b5b604051908082528060200260200182016040528015610b9257816020015b610b7f61313f565b815260200190600190039081610b775790505b50925060005b82811015610be457818181518110610bb357610bb261489f565b5b6020026020010151848281518110610bce57610bcd61489f565b5b6020026020010181905250806001019050610b98565b505050919050565b6000600260009054906101000a900460ff16610c09576012610c0c565b60005b60ff16905090565b6000604051806060016040528084848080601f016020809104026020016040519081016040528093929190818152602001838380828437600081840152601f19601f8201169050808301925050505050505081526020013373ffffffffffffffffffffffffffffffffffffffff168152602001601160008154610c9690614aa8565b9190508190558152509050600f60008581526020019081526020016000206003018190806001815401808255809150506001900390600052602060002090600302016000909190919091506000820151816000019081610cf69190614c9c565b5060208201518160010160006101000a81548173ffffffffffffffffffffffffffffffffffffffff021916908373ffffffffffffffffffffffffffffffffffffffff16021790555060408201518160020155505050505050565b610d62610d5b6124d3565b83836124db565b5050565b6060815167ffffffffffffffff811115610d8357610d826136a0565b5b604051908082528060200260200182016040528015610db657816020015b6060815260200190600190039081610da15790505b50905060005b8251811015610e1657610de8838281518110610ddb57610dda61489f565b5b60200260200101516126bf565b828281518110610dfb57610dfa61489f565b5b6020026020010181905250610e0f816124c6565b9050610dbc565b50919050565b6060600f6000838152602001908152602001600020600201805480602002602001604051908101604052809291908181526020018280548015610eb457602002820191906000526020600020905b8160009054906101000a900473ffffffffffffffffffffffffffffffffffffffff1673ffffffffffffffffffffffffffffffffffffffff1681526020019060010190808311610e6a575b50505050509050919050565b6060610ecb826126bf565b9050919050565b6000600460008373ffffffffffffffffffffffffffffffffffffffff1673ffffffffffffffffffffffffffffffffffffffff168152602001908152602001600020549050919050565b610f23612389565b610f2d60006121d7565b565b6000610f396124d3565b90508573ffffffffffffffffffffffffffffffffffffffff168173ffffffffffffffffffffffffffffffffffffffff1614611052576000600560008873ffffffffffffffffffffffffffffffffffffffff1673ffffffffffffffffffffffffffffffffffffffff16815260200190815260200160002060008373ffffffffffffffffffffffffffffffffffffffff1673ffffffffffffffffffffffffffffffffffffffff1681526020019081526020016000205490508085111561103a57868183876040517ff3a6b6910000000000000000000000000000000000000000000000000000000081526004016110319493929190614d6e565b60405180910390fd5b6110508783878461104b91906148fd565b6124db565b505b61105f8686868686612764565b505050505050565b61106f612389565b6110798282612400565b5050565b60008060009054906101000a900473ffffffffffffffffffffffffffffffffffffffff16905090565b601260009054906101000a900473ffffffffffffffffffffffffffffffffffffffff1673ffffffffffffffffffffffffffffffffffffffff163373ffffffffffffffffffffffffffffffffffffffff161461110057600080fd5b80601260006101000a81548173ffffffffffffffffffffffffffffffffffffffff021916908373ffffffffffffffffffffffffffffffffffffffff16021790555050565b3373ffffffffffffffffffffffffffffffffffffffff16600f600084815260200190815260200160002060010160009054906101000a900473ffffffffffffffffffffffffffffffffffffffff1673ffffffffffffffffffffffffffffffffffffffff1614806111e857503373ffffffffffffffffffffffffffffffffffffffff166111d083836129f4565b73ffffffffffffffffffffffffffffffffffffffff16145b8061124057503373ffffffffffffffffffffffffffffffffffffffff16601260009054906101000a900473ffffffffffffffffffffffffffffffffffffffff1673ffffffffffffffffffffffffffffffffffffffff16145b61127f576040517f08c379a000000000000000000000000000000000000000000000000000000000815260040161127690614e25565b60405180910390fd5b6000600f6000848152602001908152602001600020600301805480602002602001604051908101604052809291908181526020016000905b828210156113db57838290600052602060002090600302016040518060600160405290816000820180546112ea90614a77565b80601f016020809104026020016040519081016040528092919081815260200182805461131690614a77565b80156113635780601f1061133857610100808354040283529160200191611363565b820191906000526020600020905b81548152906001019060200180831161134657829003601f168201915b505050505081526020016001820160009054906101000a900473ffffffffffffffffffffffffffffffffffffffff1673ffffffffffffffffffffffffffffffffffffffff1673ffffffffffffffffffffffffffffffffffffffff168152602001600282015481525050815260200190600101906112b7565b5050505090506000815190506001810361141b57600c600f6000868152602001908152602001600020600301908054611415929190613176565b5061157c565b600c600d90805461142d929190613176565b5060005b81811015611553578383828151811061144d5761144c61489f565b5b6020026020010151604001511461154857600d600f600087815260200190815260200160002060030182815481106114885761148761489f565b5b90600052602060002090600302019080600181540180825580915050600190039060005260206000209060030201600090919091909150600082018160000190816114d39190614e5b565b506001820160009054906101000a900473ffffffffffffffffffffffffffffffffffffffff168160010160006101000a81548173ffffffffffffffffffffffffffffffffffffffff021916908373ffffffffffffffffffffffffffffffffffffffff1602179055506002820154816002015550505b806001019050611431565b50600d600f600086815260200190815260200160002060030190805461157a929190613176565b505b50505050565b8351855114158061159557508251855114155b806115a257508051855114155b156115d9576040517f263eee8d00000000000000000000000000000000000000000000000000000000815260040160405180910390fd5b60005b855181101561166d5761165a8682815181106115fb576115fa61489f565b5b60200260200101518683815181106116165761161561489f565b5b60200260200101518684815181106116315761163061489f565b5b60200260200101518686868151811061164d5761164c61489f565b5b6020026020010151610f2f565b808061166590614aa8565b9150506115dc565b505050505050565b6060600080600080600e8054905090506000600e8054806020026020016040519081016040528092919081815260200182805480156116d357602002820191906000526020600020905b8154815260200190600101908083116116bf575b505050505090508167ffffffffffffffff8111156116f4576116f36136a0565b5b60405190808252806020026020018201604052801561172d57816020015b61171a613254565b8152602001906001900390816117125790505b50955060005b82811015611a6d57600f60008383815181106117525761175161489f565b5b602002602001015181526020019081526020016000206040518060a001604052908160008201805461178390614a77565b80601f01602080910402602001604051908101604052809291908181526020018280546117af90614a77565b80156117fc5780601f106117d1576101008083540402835291602001916117fc565b820191906000526020600020905b8154815290600101906020018083116117df57829003601f168201915b505050505081526020016001820160009054906101000a900473ffffffffffffffffffffffffffffffffffffffff1673ffffffffffffffffffffffffffffffffffffffff1673ffffffffffffffffffffffffffffffffffffffff168152602001600282018054806020026020016040519081016040528092919081815260200182805480156118e057602002820191906000526020600020905b8160009054906101000a900473ffffffffffffffffffffffffffffffffffffffff1673ffffffffffffffffffffffffffffffffffffffff1681526020019060010190808311611896575b5050505050815260200160038201805480602002602001604051908101604052809291908181526020016000905b82821015611a32578382906000526020600020906003020160405180606001604052908160008201805461194190614a77565b80601f016020809104026020016040519081016040528092919081815260200182805461196d90614a77565b80156119ba5780601f1061198f576101008083540402835291602001916119ba565b820191906000526020600020905b81548152906001019060200180831161199d57829003601f168201915b505050505081526020016001820160009054906101000a900473ffffffffffffffffffffffffffffffffffffffff1673ffffffffffffffffffffffffffffffffffffffff1673ffffffffffffffffffffffffffffffffffffffff1681526020016002820154815250508152602001906001019061190e565b505050508152602001600482015481525050878281518110611a5757611a5661489f565b5b6020026020010181905250806001019050611733565b5085601054601154601260009054906101000a900473ffffffffffffffffffffffffffffffffffffffff169550955095509550505090919293565b600e8181548110611ab857600080fd5b906000526020600020016000915090505481565b818160066000019182611ae0929190614f4e565b5033600660010160006101000a81548173ffffffffffffffffffffffffffffffffffffffff021916908373ffffffffffffffffffffffffffffffffffffffff160217905550600b6006600201908054611b3a929190613299565b50601060008154611b4a90614aa8565b9190508190556006600401819055506006600f6000601054815260200190815260200160002060008201816000019081611b849190614e5b565b506001820160009054906101000a900473ffffffffffffffffffffffffffffffffffffffff168160010160006101000a81548173ffffffffffffffffffffffffffffffffffffffff021916908373ffffffffffffffffffffffffffffffffffffffff1602179055506002820181600201908054611c029291906132eb565b506003820181600301908054611c1992919061333d565b5060048201548160040155905050600e6010549080600181540180825580915050600190039060005260206000200160009091909190915055611c7033601054600160405180602001604052806000815250612ad0565b5050565b60008273ffffffffffffffffffffffffffffffffffffffff168273ffffffffffffffffffffffffffffffffffffffff1603611cf057600460008373ffffffffffffffffffffffffffffffffffffffff1673ffffffffffffffffffffffffffffffffffffffff168152602001908152602001600020549050611d70565b600560008373ffffffffffffffffffffffffffffffffffffffff1673ffffffffffffffffffffffffffffffffffffffff16815260200190815260200160002060008473ffffffffffffffffffffffffffffffffffffffff1673ffffffffffffffffffffffffffffffffffffffff1681526020019081526020016000205490505b92915050565b6000600f6000838152602001908152602001600020600201805480602002602001604051908101604052809291908181526020018280548015611e0e57602002820191906000526020600020905b8160009054906101000a900473ffffffffffffffffffffffffffffffffffffffff1673ffffffffffffffffffffffffffffffffffffffff1681526020019060010190808311611dc4575b5050505050905060008151905060008060005b83811015611ec5573373ffffffffffffffffffffffffffffffffffffffff16600f60008881526020019081526020016000206002018281548110611e6857611e6761489f565b5b9060005260206000200160009054906101000a900473ffffffffffffffffffffffffffffffffffffffff1673ffffffffffffffffffffffffffffffffffffffff1603611eba5760019250809150611ec5565b806001019050611e21565b5081611f4757600f6000868152602001908152602001600020600201339080600181540180825580915050600190039060005260206000200160009091909190916101000a81548173ffffffffffffffffffffffffffffffffffffffff021916908373ffffffffffffffffffffffffffffffffffffffff160217905550612068565b60008190505b600184611f5a91906148fd565b811015611fe05784600182611f6f9190614931565b81518110611f8057611f7f61489f565b5b6020026020010151858281518110611f9b57611f9a61489f565b5b602002602001019073ffffffffffffffffffffffffffffffffffffffff16908173ffffffffffffffffffffffffffffffffffffffff1681525050806001019050611f4d565b5083600f6000878152602001908152602001600020600201908051906020019061200b92919061341b565b50600f600086815260200190815260200160002060020180548061203257612031614987565b5b6001900381819060005260206000200160006101000a81549073ffffffffffffffffffffffffffffffffffffffff021916905590555b5050505050565b612077612389565b600073ffffffffffffffffffffffffffffffffffffffff168173ffffffffffffffffffffffffffffffffffffffff16036120e6576040517f08c379a00000000000000000000000000000000000000000000000000000000081526004016120dd90615090565b60405180910390fd5b6120ef816121d7565b50565b3373ffffffffffffffffffffffffffffffffffffffff16600f600085815260200190815260200160002060010160009054906101000a900473ffffffffffffffffffffffffffffffffffffffff1673ffffffffffffffffffffffffffffffffffffffff1614612196576040517f08c379a000000000000000000000000000000000000000000000000000000000815260040161218d906150fc565b60405180910390fd5b8181600f600086815260200190815260200160002060000191826121bb929190614f4e565b50505050565b6121d46121cc6124d3565b8260006124db565b50565b6121df61107d565b73ffffffffffffffffffffffffffffffffffffffff168173ffffffffffffffffffffffffffffffffffffffff16146122d35760008060009054906101000a900473ffffffffffffffffffffffffffffffffffffffff169050816000806101000a81548173ffffffffffffffffffffffffffffffffffffffff021916908373ffffffffffffffffffffffffffffffffffffffff1602179055508173ffffffffffffffffffffffffffffffffffffffff168173ffffffffffffffffffffffffffffffffffffffff167f8be0079c531659141344cd1fd0a4f28419497f9722a3daafe3b4186f6b6457e060405160405180910390a3505b50565b806001600084815260200190815260200160002090816122f69190615177565b50817fcdf4e344c0d23d4cdd0474039d176c55b19d531070dbe17856bfb993a5b5720b60405160405180910390a25050565b600063714df77c60e01b7bffffffffffffffffffffffffffffffffffffffffffffffffffffffff1916827bffffffffffffffffffffffffffffffffffffffffffffffffffffffff19161480612382575061238182612c3a565b5b9050919050565b3373ffffffffffffffffffffffffffffffffffffffff166123a861107d565b73ffffffffffffffffffffffffffffffffffffffff16146123fe576040517f08c379a00000000000000000000000000000000000000000000000000000000081526004016123f590615295565b60405180910390fd5b565b7fdeba1e292f8ba88238e10ab3c7f88bd4be4fac56cad5194b6ecceaf653468af160001b820361245c576040517f85c169bd00000000000000000000000000000000000000000000000000000000815260040160405180910390fd5b7f2f0a68ab07768e01943a599e73362a0e17a63a72e94dd2e384d2c1d4db93275660001b82036124b8576040517f76755b3800000000000000000000000000000000000000000000000000000000815260040160405180910390fd5b6124c282826122d6565b5050565b6000600182019050919050565b600033905090565b600073ffffffffffffffffffffffffffffffffffffffff168273ffffffffffffffffffffffffffffffffffffffff1603612541576040517f6355e76600000000000000000000000000000000000000000000000000000000815260040160405180910390fd5b8273ffffffffffffffffffffffffffffffffffffffff168273ffffffffffffffffffffffffffffffffffffffff1603156126ba5780600560008573ffffffffffffffffffffffffffffffffffffffff1673ffffffffffffffffffffffffffffffffffffffff16815260200190815260200160002060008473ffffffffffffffffffffffffffffffffffffffff1673ffffffffffffffffffffffffffffffffffffffff168152602001908152602001600020819055506000811461265e57808373ffffffffffffffffffffffffffffffffffffffff168373ffffffffffffffffffffffffffffffffffffffff167fd66aff874162a96578e919097b6f6d153dfd89a5cec41bb331fdb0c4aec16e2c60405160405180910390a46126b9565b8273ffffffffffffffffffffffffffffffffffffffff168273ffffffffffffffffffffffffffffffffffffffff167f50546e66e5f44d728365dc3908c63bc5cfeeab470722c1677e3073a6ac294aa160405160405180910390a35b5b505050565b60606001600083815260200190815260200160002080546126df90614a77565b80601f016020809104026020016040519081016040528092919081815260200182805461270b90614a77565b80156127585780601f1061272d57610100808354040283529160200191612758565b820191906000526020600020905b81548152906001019060200180831161273b57829003601f168201915b50505050509050919050565b600073ffffffffffffffffffffffffffffffffffffffff168573ffffffffffffffffffffffffffffffffffffffff1614806127cb5750600073ffffffffffffffffffffffffffffffffffffffff168473ffffffffffffffffffffffffffffffffffffffff16145b15612802576040517fd2d5ec3000000000000000000000000000000000000000000000000000000000815260040160405180910390fd5b6000600460008773ffffffffffffffffffffffffffffffffffffffff1673ffffffffffffffffffffffffffffffffffffffff1681526020019081526020016000205490508084111561288f578086856040517f08d47949000000000000000000000000000000000000000000000000000000008152600401612886939291906152b5565b60405180910390fd5b60006128996124d3565b90506128a6878787612ca4565b84600460008973ffffffffffffffffffffffffffffffffffffffff1673ffffffffffffffffffffffffffffffffffffffff16815260200190815260200160002060008282546128f591906148fd565b9250508190555084600460008873ffffffffffffffffffffffffffffffffffffffff1673ffffffffffffffffffffffffffffffffffffffff168152602001908152602001600020600082825461294b9190614931565b925050819055508573ffffffffffffffffffffffffffffffffffffffff168773ffffffffffffffffffffffffffffffffffffffff168273ffffffffffffffffffffffffffffffffffffffff167f3997e418d2cef0b3b0e907b1e39605c3f7d32dbd061e82ea5b4a770d46a160a68888886040516129ca939291906152ec565b60405180910390a46129de87878786612d45565b6129eb8787878787612e34565b50505050505050565b600080600090505b600f600085815260200190815260200160002060030180549050811015612ac95782600f60008681526020019081526020016000206003018281548110612a4657612a4561489f565b5b90600052602060002090600302016002015403612abe57600f60008581526020019081526020016000206003018181548110612a8557612a8461489f565b5b906000526020600020906003020160010160009054906101000a900473ffffffffffffffffffffffffffffffffffffffff169150612ac9565b8060010190506129fc565b5092915050565b600073ffffffffffffffffffffffffffffffffffffffff168473ffffffffffffffffffffffffffffffffffffffff1603612b36576040517fd2d5ec3000000000000000000000000000000000000000000000000000000000815260040160405180910390fd5b6000612b406124d3565b9050612b4e60008686612ca4565b83600460008773ffffffffffffffffffffffffffffffffffffffff1673ffffffffffffffffffffffffffffffffffffffff1681526020019081526020016000206000828254612b9d9190614931565b925050819055508473ffffffffffffffffffffffffffffffffffffffff16600073ffffffffffffffffffffffffffffffffffffffff168273ffffffffffffffffffffffffffffffffffffffff167f3997e418d2cef0b3b0e907b1e39605c3f7d32dbd061e82ea5b4a770d46a160a6878787604051612c1d939291906152ec565b60405180910390a4612c33600086868686612e34565b5050505050565b60007f01ffc9a7000000000000000000000000000000000000000000000000000000007bffffffffffffffffffffffffffffffffffffffffffffffffffffffff1916827bffffffffffffffffffffffffffffffffffffffffffffffffffffffff1916149050919050565b600073ffffffffffffffffffffffffffffffffffffffff168373ffffffffffffffffffffffffffffffffffffffff1603612cf2578060036000828254612cea9190614931565b925050819055505b600073ffffffffffffffffffffffffffffffffffffffff168273ffffffffffffffffffffffffffffffffffffffff1603612d40578060036000828254612d3891906148fd565b925050819055505b505050565b612d5684636bb56a1460e01b612fc7565b15612e2e57600084848484604051602001612d7494939291906153cf565b60405160208183030381529060405290508473ffffffffffffffffffffffffffffffffffffffff16636bb56a147f40b8bec57d7b5ff0dbd9e9acd0a47dfeb0101e1a203766f5ccab00445fbf39e960001b836040518363ffffffff1660e01b8152600401612de3929190615428565b6000604051808303816000875af1158015612e02573d6000803e3d6000fd5b505050506040513d6000823e3d601f19601f82011682018060405250810190612e2b91906154c8565b50505b50505050565b612e4584636bb56a1460e01b612fc7565b15612f2157600085858584604051602001612e6394939291906153cf565b60405160208183030381529060405290508473ffffffffffffffffffffffffffffffffffffffff16636bb56a147fdbe2c314e1aee2970c72666f2ebe8933a8575263ea71e5ff6a9178e95d47a26f60001b836040518363ffffffff1660e01b8152600401612ed2929190615428565b6000604051808303816000875af1158015612ef1573d6000803e3d6000fd5b505050506040513d6000823e3d601f19601f82011682018060405250810190612f1a91906154c8565b5050612fc0565b81612fbf5760008473ffffffffffffffffffffffffffffffffffffffff163b14612f8257836040517fa608fbb6000000000000000000000000000000000000000000000000000000008152600401612f799190614253565b60405180910390fd5b836040517f26c247f4000000000000000000000000000000000000000000000000000000008152600401612fb69190614253565b60405180910390fd5b5b5050505050565b6000806301ffc9a760e01b83604051602401612fe39190615520565b604051602081830303815290604052907bffffffffffffffffffffffffffffffffffffffffffffffffffffffff19166020820180517bffffffffffffffffffffffffffffffffffffffffffffffffffffffff838183161783525050505090506000808573ffffffffffffffffffffffffffffffffffffffff166175308460405161306d919061553b565b6000604051808303818686fa925050503d80600081146130a9576040519150601f19603f3d011682016040523d82523d6000602084013e6130ae565b606091505b50915091506020815110156130c957600093505050506130ec565b8180156130e65750808060200190518101906130e59190615567565b5b93505050505b92915050565b82805482825590600052602060002090810192821561312e579160200282015b8281111561312d578251825591602001919060010190613112565b5b50905061313b91906134a5565b5090565b604051806060016040528060608152602001600073ffffffffffffffffffffffffffffffffffffffff168152602001600081525090565b8280548282559060005260206000209060030281019282156132435760005260206000209160030282015b82811115613242578282600082018160000190816131bf9190614e5b565b506001820160009054906101000a900473ffffffffffffffffffffffffffffffffffffffff168160010160006101000a81548173ffffffffffffffffffffffffffffffffffffffff021916908373ffffffffffffffffffffffffffffffffffffffff160217905550600282015481600201555050916003019190600301906131a1565b5b50905061325091906134c2565b5090565b6040518060a0016040528060608152602001600073ffffffffffffffffffffffffffffffffffffffff1681526020016060815260200160608152602001600081525090565b8280548282559060005260206000209081019282156132da5760005260206000209182015b828111156132d95782548255916001019190600101906132be565b5b5090506132e791906134a5565b5090565b82805482825590600052602060002090810192821561332c5760005260206000209182015b8281111561332b578254825591600101919060010190613310565b5b50905061333991906134a5565b5090565b82805482825590600052602060002090600302810192821561340a5760005260206000209160030282015b82811115613409578282600082018160000190816133869190614e5b565b506001820160009054906101000a900473ffffffffffffffffffffffffffffffffffffffff168160010160006101000a81548173ffffffffffffffffffffffffffffffffffffffff021916908373ffffffffffffffffffffffffffffffffffffffff16021790555060028201548160020155505091600301919060030190613368565b5b50905061341791906134c2565b5090565b828054828255906000526020600020908101928215613494579160200282015b828111156134935782518260006101000a81548173ffffffffffffffffffffffffffffffffffffffff021916908373ffffffffffffffffffffffffffffffffffffffff1602179055509160200191906001019061343b565b5b5090506134a191906134a5565b5090565b5b808211156134be5760008160009055506001016134a6565b5090565b5b8082111561351457600080820160006134dc9190613518565b6001820160006101000a81549073ffffffffffffffffffffffffffffffffffffffff02191690556002820160009055506003016134c3565b5090565b50805461352490614a77565b6000825580601f106135365750613555565b601f01602090049060005260206000209081019061355491906134a5565b5b50565b6000604051905090565b600080fd5b600080fd5b60007fffffffff0000000000000000000000000000000000000000000000000000000082169050919050565b6135a18161356c565b81146135ac57600080fd5b50565b6000813590506135be81613598565b92915050565b6000602082840312156135da576135d9613562565b5b60006135e8848285016135af565b91505092915050565b60008115159050919050565b613606816135f1565b82525050565b600060208201905061362160008301846135fd565b92915050565b6000819050919050565b61363a81613627565b811461364557600080fd5b50565b60008135905061365781613631565b92915050565b60006020828403121561367357613672613562565b5b600061368184828501613648565b91505092915050565b600080fd5b6000601f19601f8301169050919050565b7f4e487b7100000000000000000000000000000000000000000000000000000000600052604160045260246000fd5b6136d88261368f565b810181811067ffffffffffffffff821117156136f7576136f66136a0565b5b80604052505050565b600061370a613558565b905061371682826136cf565b919050565b600067ffffffffffffffff821115613736576137356136a0565b5b602082029050602081019050919050565b600080fd5b6000819050919050565b61375f8161374c565b811461376a57600080fd5b50565b60008135905061377c81613756565b92915050565b60006137956137908461371b565b613700565b905080838252602082019050602084028301858111156137b8576137b7613747565b5b835b818110156137e157806137cd888261376d565b8452602084019350506020810190506137ba565b5050509392505050565b600082601f830112613800576137ff61368a565b5b8135613810848260208601613782565b91505092915050565b600067ffffffffffffffff821115613834576138336136a0565b5b602082029050602081019050919050565b600080fd5b600067ffffffffffffffff821115613865576138646136a0565b5b61386e8261368f565b9050602081019050919050565b82818337600083830152505050565b600061389d6138988461384a565b613700565b9050828152602081018484840111156138b9576138b8613845565b5b6138c484828561387b565b509392505050565b600082601f8301126138e1576138e061368a565b5b81356138f184826020860161388a565b91505092915050565b600061390d61390884613819565b613700565b905080838252602082019050602084028301858111156139305761392f613747565b5b835b8181101561397757803567ffffffffffffffff8111156139555761395461368a565b5b80860161396289826138cc565b85526020850194505050602081019050613932565b5050509392505050565b600082601f8301126139965761399561368a565b5b81356139a68482602086016138fa565b91505092915050565b600080604083850312156139c6576139c5613562565b5b600083013567ffffffffffffffff8111156139e4576139e3613567565b5b6139f0858286016137eb565b925050602083013567ffffffffffffffff811115613a1157613a10613567565b5b613a1d85828601613981565b9150509250929050565b600081519050919050565b600082825260208201905092915050565b60005b83811015613a61578082015181840152602081019050613a46565b83811115613a70576000848401525b50505050565b6000613a8182613a27565b613a8b8185613a32565b9350613a9b818560208601613a43565b613aa48161368f565b840191505092915050565b600073ffffffffffffffffffffffffffffffffffffffff82169050919050565b6000613ada82613aaf565b9050919050565b613aea81613acf565b82525050565b613af981613627565b82525050565b60006060820190508181036000830152613b198186613a76565b9050613b286020830185613ae1565b613b356040830184613af0565b949350505050565b6000602082019050613b526000830184613af0565b92915050565b600081519050919050565b600082825260208201905092915050565b6000819050602082019050919050565b600082825260208201905092915050565b6000613ba082613a27565b613baa8185613b84565b9350613bba818560208601613a43565b613bc38161368f565b840191505092915050565b613bd781613acf565b82525050565b613be681613627565b82525050565b60006060830160008301518482036000860152613c098282613b95565b9150506020830151613c1e6020860182613bce565b506040830151613c316040860182613bdd565b508091505092915050565b6000613c488383613bec565b905092915050565b6000602082019050919050565b6000613c6882613b58565b613c728185613b63565b935083602082028501613c8485613b74565b8060005b85811015613cc05784840389528151613ca18582613c3c565b9450613cac83613c50565b925060208a01995050600181019050613c88565b50829750879550505050505092915050565b60006020820190508181036000830152613cec8184613c5d565b905092915050565b600080fd5b60008083601f840112613d0f57613d0e61368a565b5b8235905067ffffffffffffffff811115613d2c57613d2b613cf4565b5b602083019150836001820283011115613d4857613d47613747565b5b9250929050565b600080600060408486031215613d6857613d67613562565b5b6000613d7686828701613648565b935050602084013567ffffffffffffffff811115613d9757613d96613567565b5b613da386828701613cf9565b92509250509250925092565b613db881613acf565b8114613dc357600080fd5b50565b600081359050613dd581613daf565b92915050565b60008060408385031215613df257613df1613562565b5b6000613e0085828601613dc6565b9250506020613e1185828601613648565b9150509250929050565b600060208284031215613e3157613e30613562565b5b600082013567ffffffffffffffff811115613e4f57613e4e613567565b5b613e5b848285016137eb565b91505092915050565b600081519050919050565b600082825260208201905092915050565b6000819050602082019050919050565b600081519050919050565b600082825260208201905092915050565b6000613eb782613e90565b613ec18185613e9b565b9350613ed1818560208601613a43565b613eda8161368f565b840191505092915050565b6000613ef18383613eac565b905092915050565b6000602082019050919050565b6000613f1182613e64565b613f1b8185613e6f565b935083602082028501613f2d85613e80565b8060005b85811015613f695784840389528151613f4a8582613ee5565b9450613f5583613ef9565b925060208a01995050600181019050613f31565b50829750879550505050505092915050565b60006020820190508181036000830152613f958184613f06565b905092915050565b600081519050919050565b600082825260208201905092915050565b6000819050602082019050919050565b6000613fd58383613bce565b60208301905092915050565b6000602082019050919050565b6000613ff982613f9d565b6140038185613fa8565b935061400e83613fb9565b8060005b8381101561403f5781516140268882613fc9565b975061403183613fe1565b925050600181019050614012565b5085935050505092915050565b600060208201905081810360008301526140668184613fee565b905092915050565b60006020828403121561408457614083613562565b5b60006140928482850161376d565b91505092915050565b600082825260208201905092915050565b60006140b782613e90565b6140c1818561409b565b93506140d1818560208601613a43565b6140da8161368f565b840191505092915050565b600060208201905081810360008301526140ff81846140ac565b905092915050565b60006020828403121561411d5761411c613562565b5b600061412b84828501613dc6565b91505092915050565b61413d816135f1565b811461414857600080fd5b50565b60008135905061415a81614134565b92915050565b600080600080600060a0868803121561417c5761417b613562565b5b600061418a88828901613dc6565b955050602061419b88828901613dc6565b94505060406141ac88828901613648565b93505060606141bd8882890161414b565b925050608086013567ffffffffffffffff8111156141de576141dd613567565b5b6141ea888289016138cc565b9150509295509295909350565b6000806040838503121561420e5761420d613562565b5b600061421c8582860161376d565b925050602083013567ffffffffffffffff81111561423d5761423c613567565b5b614249858286016138cc565b9150509250929050565b60006020820190506142686000830184613ae1565b92915050565b6000806040838503121561428557614284613562565b5b600061429385828601613648565b92505060206142a485828601613648565b9150509250929050565b600067ffffffffffffffff8211156142c9576142c86136a0565b5b602082029050602081019050919050565b60006142ed6142e8846142ae565b613700565b905080838252602082019050602084028301858111156143105761430f613747565b5b835b8181101561433957806143258882613dc6565b845260208401935050602081019050614312565b5050509392505050565b600082601f8301126143585761435761368a565b5b81356143688482602086016142da565b91505092915050565b600067ffffffffffffffff82111561438c5761438b6136a0565b5b602082029050602081019050919050565b60006143b06143ab84614371565b613700565b905080838252602082019050602084028301858111156143d3576143d2613747565b5b835b818110156143fc57806143e88882613648565b8452602084019350506020810190506143d5565b5050509392505050565b600082601f83011261441b5761441a61368a565b5b813561442b84826020860161439d565b91505092915050565b600080600080600060a086880312156144505761444f613562565b5b600086013567ffffffffffffffff81111561446e5761446d613567565b5b61447a88828901614343565b955050602086013567ffffffffffffffff81111561449b5761449a613567565b5b6144a788828901614343565b945050604086013567ffffffffffffffff8111156144c8576144c7613567565b5b6144d488828901614406565b93505060606144e58882890161414b565b925050608086013567ffffffffffffffff81111561450657614505613567565b5b61451288828901613981565b9150509295509295909350565b600081519050919050565b600082825260208201905092915050565b6000819050602082019050919050565b600082825260208201905092915050565b600061456782613f9d565b614571818561454b565b935061457c83613fb9565b8060005b838110156145ad5781516145948882613fc9565b975061459f83613fe1565b925050600181019050614580565b5085935050505092915050565b600082825260208201905092915050565b60006145d682613b58565b6145e081856145ba565b9350836020820285016145f285613b74565b8060005b8581101561462e578484038952815161460f8582613c3c565b945061461a83613c50565b925060208a019950506001810190506145f6565b50829750879550505050505092915050565b600060a083016000830151848203600086015261465d8282613b95565b91505060208301516146726020860182613bce565b506040830151848203604086015261468a828261455c565b915050606083015184820360608601526146a482826145cb565b91505060808301516146b96080860182613bdd565b508091505092915050565b60006146d08383614640565b905092915050565b6000602082019050919050565b60006146f08261451f565b6146fa818561452a565b93508360208202850161470c8561453b565b8060005b85811015614748578484038952815161472985826146c4565b9450614734836146d8565b925060208a01995050600181019050614710565b50829750879550505050505092915050565b6000608082019050818103600083015261477481876146e5565b90506147836020830186613af0565b6147906040830185613af0565b61479d6060830184613ae1565b95945050505050565b600080602083850312156147bd576147bc613562565b5b600083013567ffffffffffffffff8111156147db576147da613567565b5b6147e785828601613cf9565b92509250509250929050565b6000806040838503121561480a57614809613562565b5b600061481885828601613dc6565b925050602061482985828601613dc6565b9150509250929050565b7f617574686f72206f722061646d696e2063616e2064656c65746520706f737400600082015250565b6000614869601f83613a32565b915061487482614833565b602082019050919050565b600060208201905081810360008301526148988161485c565b9050919050565b7f4e487b7100000000000000000000000000000000000000000000000000000000600052603260045260246000fd5b7f4e487b7100000000000000000000000000000000000000000000000000000000600052601160045260246000fd5b600061490882613627565b915061491383613627565b925082821015614926576149256148ce565b5b828203905092915050565b600061493c82613627565b915061494783613627565b9250827fffffffffffffffffffffffffffffffffffffffffffffffffffffffffffffffff0382111561497c5761497b6148ce565b5b828201905092915050565b7f4e487b7100000000000000000000000000000000000000000000000000000000600052603160045260246000fd5b7f4b657973206c656e677468206e6f7420657175616c20746f2076616c7565732060008201527f6c656e6774680000000000000000000000000000000000000000000000000000602082015250565b6000614a12602683613a32565b9150614a1d826149b6565b604082019050919050565b60006020820190508181036000830152614a4181614a05565b9050919050565b7f4e487b7100000000000000000000000000000000000000000000000000000000600052602260045260246000fd5b60006002820490506001821680614a8f57607f821691505b602082108103614aa257614aa1614a48565b5b50919050565b6000614ab382613627565b91507fffffffffffffffffffffffffffffffffffffffffffffffffffffffffffffffff8203614ae557614ae46148ce565b5b600182019050919050565b60008190508160005260206000209050919050565b60006020601f8301049050919050565b600082821b905092915050565b600060088302614b527fffffffffffffffffffffffffffffffffffffffffffffffffffffffffffffffff82614b15565b614b5c8683614b15565b95508019841693508086168417925050509392505050565b6000819050919050565b6000614b99614b94614b8f84613627565b614b74565b613627565b9050919050565b6000819050919050565b614bb383614b7e565b614bc7614bbf82614ba0565b848454614b22565b825550505050565b600090565b614bdc614bcf565b614be7818484614baa565b505050565b5b81811015614c0b57614c00600082614bd4565b600181019050614bed565b5050565b601f821115614c5057614c2181614af0565b614c2a84614b05565b81016020851015614c39578190505b614c4d614c4585614b05565b830182614bec565b50505b505050565b600082821c905092915050565b6000614c7360001984600802614c55565b1980831691505092915050565b6000614c8c8383614c62565b9150826002028217905092915050565b614ca582613a27565b67ffffffffffffffff811115614cbe57614cbd6136a0565b5b614cc88254614a77565b614cd3828285614c0f565b600060209050601f831160018114614d065760008415614cf4578287015190505b614cfe8582614c80565b865550614d66565b601f198416614d1486614af0565b60005b82811015614d3c57848901518255600182019150602085019450602081019050614d17565b86831015614d595784890151614d55601f891682614c62565b8355505b6001600288020188555050505b505050505050565b6000608082019050614d836000830187613ae1565b614d906020830186613af0565b614d9d6040830185613ae1565b614daa6060830184613af0565b95945050505050565b7f4f6e6c7920706f737420617574686f72206f7220636f6d6d656e746f7220636160008201527f6e2072656d6f766520636f6d6d656e7400000000000000000000000000000000602082015250565b6000614e0f603083613a32565b9150614e1a82614db3565b604082019050919050565b60006020820190508181036000830152614e3e81614e02565b9050919050565b600081549050614e5481614a77565b9050919050565b818103614e69575050614f41565b614e7282614e45565b67ffffffffffffffff811115614e8b57614e8a6136a0565b5b614e958254614a77565b614ea0828285614c0f565b6000601f831160018114614ecf5760008415614ebd578287015490505b614ec78582614c80565b865550614f3a565b601f198416614edd87614af0565b9650614ee886614af0565b60005b82811015614f1057848901548255600182019150600185019450602081019050614eeb565b86831015614f2d5784890154614f29601f891682614c62565b8355505b6001600288020188555050505b5050505050505b565b600082905092915050565b614f588383614f43565b67ffffffffffffffff811115614f7157614f706136a0565b5b614f7b8254614a77565b614f86828285614c0f565b6000601f831160018114614fb55760008415614fa3578287013590505b614fad8582614c80565b865550615015565b601f198416614fc386614af0565b60005b82811015614feb57848901358255600182019150602085019450602081019050614fc6565b868310156150085784890135615004601f891682614c62565b8355505b6001600288020188555050505b50505050505050565b7f4f776e61626c653a206e6577206f776e657220697320746865207a65726f206160008201527f6464726573730000000000000000000000000000000000000000000000000000602082015250565b600061507a602683613a32565b91506150858261501e565b604082019050919050565b600060208201905081810360008301526150a98161506d565b9050919050565b7f4f6e6c7920617574686f722063616e206564697420706f737400000000000000600082015250565b60006150e6601983613a32565b91506150f1826150b0565b602082019050919050565b60006020820190508181036000830152615115816150d9565b9050919050565b60008190508160005260206000209050919050565b601f821115615172576151438161511c565b61514c84614b05565b8101602085101561515b578190505b61516f61516785614b05565b830182614bec565b50505b505050565b61518082613e90565b67ffffffffffffffff811115615199576151986136a0565b5b6151a38254614a77565b6151ae828285615131565b600060209050601f8311600181146151e157600084156151cf578287015190505b6151d98582614c80565b865550615241565b601f1984166151ef8661511c565b60005b82811015615217578489015182556001820191506020850194506020810190506151f2565b868310156152345784890151615230601f891682614c62565b8355505b6001600288020188555050505b505050505050565b7f4f776e61626c653a2063616c6c6572206973206e6f7420746865206f776e6572600082015250565b600061527f602083613a32565b915061528a82615249565b602082019050919050565b600060208201905081810360008301526152ae81615272565b9050919050565b60006060820190506152ca6000830186613af0565b6152d76020830185613ae1565b6152e46040830184613af0565b949350505050565b60006060820190506153016000830186613af0565b61530e60208301856135fd565b818103604083015261532081846140ac565b9050949350505050565b60008160601b9050919050565b60006153428261532a565b9050919050565b600061535482615337565b9050919050565b61536c61536782613acf565b615349565b82525050565b6000819050919050565b61538d61538882613627565b615372565b82525050565b600081905092915050565b60006153a982613e90565b6153b38185615393565b93506153c3818560208601613a43565b80840191505092915050565b60006153db828761535b565b6014820191506153eb828661535b565b6014820191506153fb828561537c565b60208201915061540b828461539e565b915081905095945050505050565b6154228161374c565b82525050565b600060408201905061543d6000830185615419565b818103602083015261544f81846140ac565b90509392505050565b600061546b6154668461384a565b613700565b90508281526020810184848401111561548757615486613845565b5b615492848285613a43565b509392505050565b600082601f8301126154af576154ae61368a565b5b81516154bf848260208601615458565b91505092915050565b6000602082840312156154de576154dd613562565b5b600082015167ffffffffffffffff8111156154fc576154fb613567565b5b6155088482850161549a565b91505092915050565b61551a8161356c565b82525050565b60006020820190506155356000830184615511565b92915050565b6000615547828461539e565b915081905092915050565b60008151905061556181614134565b92915050565b60006020828403121561557d5761557c613562565b5b600061558b84828501615552565b9150509291505056fea2646970667358221220309e77c701f3c2dbdbe468b0e4929f283d756697b3475869cfe24b96f2b19e0164736f6c634300080f0033",
  "linkReferences": {},
  "deployedLinkReferences": {}
}